{
	"data": {
		"bytecode": {
			"linkReferences": {},
			"object": "60806040525f80553480156011575f80fd5b506102c68061001f5f395ff3fe608060405234801561000f575f80fd5b5060043610610055575f3560e01c80631dc05f17146100595780634f2be91f14610075578063653721471461007f5780636d4ce63c1461009d578063c6888fa1146100bb575b5f80fd5b610073600480360381019061006e9190610169565b6100d7565b005b61007d6100f1565b005b61008761010b565b60405161009491906101a3565b60405180910390f35b6100a5610110565b6040516100b291906101a3565b60405180910390f35b6100d560048036038101906100d09190610169565b610118565b005b805f808282546100e791906101e9565b9250508190555050565b60015f80828254610102919061021c565b92505081905550565b5f5481565b5f8054905090565b805f80828254610128919061024f565b9250508190555050565b5f80fd5b5f819050919050565b61014881610136565b8114610152575f80fd5b50565b5f813590506101638161013f565b92915050565b5f6020828403121561017e5761017d610132565b5b5f61018b84828501610155565b91505092915050565b61019d81610136565b82525050565b5f6020820190506101b65f830184610194565b92915050565b7f4e487b71000000000000000000000000000000000000000000000000000000005f52601160045260245ffd5b5f6101f382610136565b91506101fe83610136565b9250828203905081811115610216576102156101bc565b5b92915050565b5f61022682610136565b915061023183610136565b9250828201905080821115610249576102486101bc565b5b92915050565b5f61025982610136565b915061026483610136565b925082820261027281610136565b91508282048414831517610289576102886101bc565b5b509291505056fea264697066735822122026f495e523eec0ef2fc290235cbe75142841eebc692ce13c6cbb1fab885a6fcd64736f6c634300081a0033",
			"opcodes": "PUSH1 0x80 PUSH1 0x40 MSTORE PUSH0 DUP1 SSTORE CALLVALUE DUP1 ISZERO PUSH1 0x11 JUMPI PUSH0 DUP1 REVERT JUMPDEST POP PUSH2 0x2C6 DUP1 PUSH2 0x1F PUSH0 CODECOPY PUSH0 RETURN INVALID PUSH1 0x80 PUSH1 0x40 MSTORE CALLVALUE DUP1 ISZERO PUSH2 0xF JUMPI PUSH0 DUP1 REVERT JUMPDEST POP PUSH1 0x4 CALLDATASIZE LT PUSH2 0x55 JUMPI PUSH0 CALLDATALOAD PUSH1 0xE0 SHR DUP1 PUSH4 0x1DC05F17 EQ PUSH2 0x59 JUMPI DUP1 PUSH4 0x4F2BE91F EQ PUSH2 0x75 JUMPI DUP1 PUSH4 0x65372147 EQ PUSH2 0x7F JUMPI DUP1 PUSH4 0x6D4CE63C EQ PUSH2 0x9D JUMPI DUP1 PUSH4 0xC6888FA1 EQ PUSH2 0xBB JUMPI JUMPDEST PUSH0 DUP1 REVERT JUMPDEST PUSH2 0x73 PUSH1 0x4 DUP1 CALLDATASIZE SUB DUP2 ADD SWAP1 PUSH2 0x6E SWAP2 SWAP1 PUSH2 0x169 JUMP JUMPDEST PUSH2 0xD7 JUMP JUMPDEST STOP JUMPDEST PUSH2 0x7D PUSH2 0xF1 JUMP JUMPDEST STOP JUMPDEST PUSH2 0x87 PUSH2 0x10B JUMP JUMPDEST PUSH1 0x40 MLOAD PUSH2 0x94 SWAP2 SWAP1 PUSH2 0x1A3 JUMP JUMPDEST PUSH1 0x40 MLOAD DUP1 SWAP2 SUB SWAP1 RETURN JUMPDEST PUSH2 0xA5 PUSH2 0x110 JUMP JUMPDEST PUSH1 0x40 MLOAD PUSH2 0xB2 SWAP2 SWAP1 PUSH2 0x1A3 JUMP JUMPDEST PUSH1 0x40 MLOAD DUP1 SWAP2 SUB SWAP1 RETURN JUMPDEST PUSH2 0xD5 PUSH1 0x4 DUP1 CALLDATASIZE SUB DUP2 ADD SWAP1 PUSH2 0xD0 SWAP2 SWAP1 PUSH2 0x169 JUMP JUMPDEST PUSH2 0x118 JUMP JUMPDEST STOP JUMPDEST DUP1 PUSH0 DUP1 DUP3 DUP3 SLOAD PUSH2 0xE7 SWAP2 SWAP1 PUSH2 0x1E9 JUMP JUMPDEST SWAP3 POP POP DUP2 SWAP1 SSTORE POP POP JUMP JUMPDEST PUSH1 0x1 PUSH0 DUP1 DUP3 DUP3 SLOAD PUSH2 0x102 SWAP2 SWAP1 PUSH2 0x21C JUMP JUMPDEST SWAP3 POP POP DUP2 SWAP1 SSTORE POP JUMP JUMPDEST PUSH0 SLOAD DUP2 JUMP JUMPDEST PUSH0 DUP1 SLOAD SWAP1 POP SWAP1 JUMP JUMPDEST DUP1 PUSH0 DUP1 DUP3 DUP3 SLOAD PUSH2 0x128 SWAP2 SWAP1 PUSH2 0x24F JUMP JUMPDEST SWAP3 POP POP DUP2 SWAP1 SSTORE POP POP JUMP JUMPDEST PUSH0 DUP1 REVERT JUMPDEST PUSH0 DUP2 SWAP1 POP SWAP2 SWAP1 POP JUMP JUMPDEST PUSH2 0x148 DUP2 PUSH2 0x136 JUMP JUMPDEST DUP2 EQ PUSH2 0x152 JUMPI PUSH0 DUP1 REVERT JUMPDEST POP JUMP JUMPDEST PUSH0 DUP2 CALLDATALOAD SWAP1 POP PUSH2 0x163 DUP2 PUSH2 0x13F JUMP JUMPDEST SWAP3 SWAP2 POP POP JUMP JUMPDEST PUSH0 PUSH1 0x20 DUP3 DUP5 SUB SLT ISZERO PUSH2 0x17E JUMPI PUSH2 0x17D PUSH2 0x132 JUMP JUMPDEST JUMPDEST PUSH0 PUSH2 0x18B DUP5 DUP3 DUP6 ADD PUSH2 0x155 JUMP JUMPDEST SWAP2 POP POP SWAP3 SWAP2 POP POP JUMP JUMPDEST PUSH2 0x19D DUP2 PUSH2 0x136 JUMP JUMPDEST DUP3 MSTORE POP POP JUMP JUMPDEST PUSH0 PUSH1 0x20 DUP3 ADD SWAP1 POP PUSH2 0x1B6 PUSH0 DUP4 ADD DUP5 PUSH2 0x194 JUMP JUMPDEST SWAP3 SWAP2 POP POP JUMP JUMPDEST PUSH32 0x4E487B7100000000000000000000000000000000000000000000000000000000 PUSH0 MSTORE PUSH1 0x11 PUSH1 0x4 MSTORE PUSH1 0x24 PUSH0 REVERT JUMPDEST PUSH0 PUSH2 0x1F3 DUP3 PUSH2 0x136 JUMP JUMPDEST SWAP2 POP PUSH2 0x1FE DUP4 PUSH2 0x136 JUMP JUMPDEST SWAP3 POP DUP3 DUP3 SUB SWAP1 POP DUP2 DUP2 GT ISZERO PUSH2 0x216 JUMPI PUSH2 0x215 PUSH2 0x1BC JUMP JUMPDEST JUMPDEST SWAP3 SWAP2 POP POP JUMP JUMPDEST PUSH0 PUSH2 0x226 DUP3 PUSH2 0x136 JUMP JUMPDEST SWAP2 POP PUSH2 0x231 DUP4 PUSH2 0x136 JUMP JUMPDEST SWAP3 POP DUP3 DUP3 ADD SWAP1 POP DUP1 DUP3 GT ISZERO PUSH2 0x249 JUMPI PUSH2 0x248 PUSH2 0x1BC JUMP JUMPDEST JUMPDEST SWAP3 SWAP2 POP POP JUMP JUMPDEST PUSH0 PUSH2 0x259 DUP3 PUSH2 0x136 JUMP JUMPDEST SWAP2 POP PUSH2 0x264 DUP4 PUSH2 0x136 JUMP JUMPDEST SWAP3 POP DUP3 DUP3 MUL PUSH2 0x272 DUP2 PUSH2 0x136 JUMP JUMPDEST SWAP2 POP DUP3 DUP3 DIV DUP5 EQ DUP4 ISZERO OR PUSH2 0x289 JUMPI PUSH2 0x288 PUSH2 0x1BC JUMP JUMPDEST JUMPDEST POP SWAP3 SWAP2 POP POP JUMP INVALID LOG2 PUSH5 0x6970667358 0x22 SLT KECCAK256 0x26 DELEGATECALL SWAP6 0xE5 0x23 0xEE 0xC0 0xEF 0x2F 0xC2 SWAP1 0x23 TLOAD 0xBE PUSH22 0x142841EEBC692CE13C6CBB1FAB885A6FCD64736F6C63 NUMBER STOP ADDMOD BYTE STOP CALLER "
		},
		"gasEstimates": {
			"creation": {
				"codeDepositCost": "142000",
				"executionCost": "5193",
				"totalCost": "147193"
			},
			"external": {
				"add()": "infinite",
				"get()": "2476",
				"multiply(uint256)": "infinite",
				"result()": "2446",
				"subtract(uint256)": "infinite"
			}
		},
		"methodIdentifiers": {
			"add()": "4f2be91f",
			"get()": "6d4ce63c",
			"multiply(uint256)": "c6888fa1",
			"result()": "65372147",
			"subtract(uint256)": "1dc05f17"
		}
	},
	"abi": [
		{
			"inputs": [],
			"name": "add",
			"outputs": [],
			"stateMutability": "nonpayable",
			"type": "function"
		},
		{
			"inputs": [],
			"name": "get",
			"outputs": [
				{
					"internalType": "uint256",
					"name": "",
					"type": "uint256"
				}
			],
			"stateMutability": "view",
			"type": "function"
		},
		{
			"inputs": [
				{
					"internalType": "uint256",
					"name": "num",
					"type": "uint256"
				}
			],
			"name": "multiply",
			"outputs": [],
			"stateMutability": "nonpayable",
			"type": "function"
		},
		{
			"inputs": [],
			"name": "result",
			"outputs": [
				{
					"internalType": "uint256",
					"name": "",
					"type": "uint256"
				}
			],
			"stateMutability": "view",
			"type": "function"
		},
		{
			"inputs": [
				{
					"internalType": "uint256",
					"name": "num",
					"type": "uint256"
				}
			],
			"name": "subtract",
			"outputs": [],
			"stateMutability": "nonpayable",
			"type": "function"
		}
	]
}